{
  "contractName": "EthPriceOraclize",
  "abi": [
    {
      "constant": true,
      "inputs": [],
      "name": "delay",
      "outputs": [
        {
          "name": "",
          "type": "uint256"
        }
      ],
      "payable": false,
      "stateMutability": "view",
      "type": "function"
    },
    {
      "constant": true,
      "inputs": [],
      "name": "ETHUSD",
      "outputs": [
        {
          "name": "",
          "type": "uint256"
        }
      ],
      "payable": false,
      "stateMutability": "view",
      "type": "function"
    },
    {
      "constant": true,
      "inputs": [],
      "name": "owner",
      "outputs": [
        {
          "name": "",
          "type": "address"
        }
      ],
      "payable": false,
      "stateMutability": "view",
      "type": "function"
    },
    {
      "constant": true,
      "inputs": [],
      "name": "ethDefaultPrice",
      "outputs": [
        {
          "name": "",
          "type": "uint256"
        }
      ],
      "payable": false,
      "stateMutability": "view",
      "type": "function"
    },
    {
      "inputs": [],
      "payable": false,
      "stateMutability": "nonpayable",
      "type": "constructor"
    },
    {
      "payable": true,
      "stateMutability": "payable",
      "type": "fallback"
    },
    {
      "anonymous": false,
      "inputs": [
        {
          "indexed": false,
          "name": "_oraclize",
          "type": "address"
        }
      ],
      "name": "OraclizeCreated",
      "type": "event"
    },
    {
      "anonymous": false,
      "inputs": [
        {
          "indexed": false,
          "name": "description",
          "type": "string"
        }
      ],
      "name": "LogInfo",
      "type": "event"
    },
    {
      "anonymous": false,
      "inputs": [
        {
          "indexed": false,
          "name": "price",
          "type": "uint256"
        }
      ],
      "name": "LogPriceUpdate",
      "type": "event"
    },
    {
      "constant": false,
      "inputs": [
        {
          "name": "myid",
          "type": "bytes32"
        },
        {
          "name": "result",
          "type": "string"
        }
      ],
      "name": "__callback",
      "outputs": [],
      "payable": false,
      "stateMutability": "nonpayable",
      "type": "function"
    },
    {
      "constant": false,
      "inputs": [
        {
          "name": "id",
          "type": "bytes32"
        },
        {
          "name": "result",
          "type": "string"
        },
        {
          "name": "proof",
          "type": "bytes"
        }
      ],
      "name": "__callback",
      "outputs": [],
      "payable": false,
      "stateMutability": "nonpayable",
      "type": "function"
    },
    {
      "constant": false,
      "inputs": [
        {
          "name": "_delay",
          "type": "uint256"
        }
      ],
      "name": "update",
      "outputs": [],
      "payable": true,
      "stateMutability": "payable",
      "type": "function"
    },
    {
      "constant": false,
      "inputs": [
        {
          "name": "_price",
          "type": "uint256"
        }
      ],
      "name": "setETHPriceManually",
      "outputs": [],
      "payable": false,
      "stateMutability": "nonpayable",
      "type": "function"
    },
    {
      "constant": false,
      "inputs": [
        {
          "name": "_newDelay",
          "type": "uint256"
        }
      ],
      "name": "changeQueryDelay",
      "outputs": [],
      "payable": false,
      "stateMutability": "nonpayable",
      "type": "function"
    },
    {
      "constant": true,
      "inputs": [],
      "name": "getEthPrice",
      "outputs": [
        {
          "name": "",
          "type": "uint256"
        }
      ],
      "payable": false,
      "stateMutability": "view",
      "type": "function"
    }
  ],
  "bytecode": "0x608060405261a8c06006553480156200001757600080fd5b5033600560006101000a81548173ffffffffffffffffffffffffffffffffffffffff021916908373ffffffffffffffffffffffffffffffffffffffff160217905550620000bb60017f01000000000000000000000000000000000000000000000000000000000000000260107f010000000000000000000000000000000000000000000000000000000000000002176200013f640100000000026401000000009004565b7fb472abdb812ae297dc9362ffa05f608532a9f1f1a58f846cad843fe2f00737f530604051808273ffffffffffffffffffffffffffffffffffffffff1673ffffffffffffffffffffffffffffffffffffffff16815260200191505060405180910390a1620001396000620004f3640100000000026401000000009004565b620017b9565b60008060009054906101000a900473ffffffffffffffffffffffffffffffffffffffff1673ffffffffffffffffffffffffffffffffffffffff161480620001c057506000620001be6000809054906101000a900473ffffffffffffffffffffffffffffffffffffffff166200078a640100000000026401000000009004565b145b15620001e357620001e1600062000795640100000000026401000000009004565b505b6000809054906101000a900473ffffffffffffffffffffffffffffffffffffffff1673ffffffffffffffffffffffffffffffffffffffff166338cc48316040518163ffffffff167c0100000000000000000000000000000000000000000000000000000000028152600401602060405180830381600087803b1580156200026957600080fd5b505af11580156200027e573d6000803e3d6000fd5b505050506040513d60208110156200029557600080fd5b810190808051906020019092919050505073ffffffffffffffffffffffffffffffffffffffff16600160009054906101000a900473ffffffffffffffffffffffffffffffffffffffff1673ffffffffffffffffffffffffffffffffffffffff1614151562000401576000809054906101000a900473ffffffffffffffffffffffffffffffffffffffff1673ffffffffffffffffffffffffffffffffffffffff166338cc48316040518163ffffffff167c0100000000000000000000000000000000000000000000000000000000028152600401602060405180830381600087803b1580156200038357600080fd5b505af115801562000398573d6000803e3d6000fd5b505050506040513d6020811015620003af57600080fd5b8101908080519060200190929190505050600160006101000a81548173ffffffffffffffffffffffffffffffffffffffff021916908373ffffffffffffffffffffffffffffffffffffffff1602179055505b600160009054906101000a900473ffffffffffffffffffffffffffffffffffffffff1673ffffffffffffffffffffffffffffffffffffffff1663688dcfd7826040518263ffffffff167c010000000000000000000000000000000000000000000000000000000002815260040180827effffffffffffffffffffffffffffffffffffffffffffffffffffffffffffff19167effffffffffffffffffffffffffffffffffffffffffffffffffffffffffffff19168152602001915050600060405180830381600087803b158015620004d757600080fd5b505af1158015620004ec573d6000803e3d6000fd5b5050505050565b3073ffffffffffffffffffffffffffffffffffffffff16316200055a6040805190810160405280600381526020017f55524c0000000000000000000000000000000000000000000000000000000000815250620007b7640100000000026401000000009004565b111562000624576007546008819055507ffee95ecae0c8f7f0743ec0ad254c78ab75e5ecca9f1ddcd9f11f9a98124b96bc60405180806020018281038252604c8152602001807f4f7261636c697a6520717565727920776173204e4f542073656e742c20706c6581526020017f6173652061646420736f6d652045544820746f20636f76657220666f7220746881526020017f652071756572792066656521000000000000000000000000000000000000000081525060600191505060405180910390a162000787565b7ffee95ecae0c8f7f0743ec0ad254c78ab75e5ecca9f1ddcd9f11f9a98124b96bc6040518080602001828103825260378152602001807f4f7261636c697a65207175657279207761732073656e742c207374616e64696e81526020017f6720627920666f722074686520616e73776572202e2e2e00000000000000000081525060400191505060405180910390a162000785816040805190810160405280600381526020017f55524c0000000000000000000000000000000000000000000000000000000000815250608060405190810160405280604381526020017f6a736f6e2868747470733a2f2f6170692e636f696e6d61726b65746361702e6381526020017f6f6d2f76312f7469636b65722f657468657265756d2f292e302e70726963655f81526020017f757364000000000000000000000000000000000000000000000000000000000081525062000bb8640100000000026401000000009004565b505b50565b6000813b9050919050565b6000620007b062001196640100000000026401000000009004565b9050919050565b6000806000809054906101000a900473ffffffffffffffffffffffffffffffffffffffff1673ffffffffffffffffffffffffffffffffffffffff1614806200083957506000620008376000809054906101000a900473ffffffffffffffffffffffffffffffffffffffff166200078a640100000000026401000000009004565b145b156200085c576200085a600062000795640100000000026401000000009004565b505b6000809054906101000a900473ffffffffffffffffffffffffffffffffffffffff1673ffffffffffffffffffffffffffffffffffffffff166338cc48316040518163ffffffff167c0100000000000000000000000000000000000000000000000000000000028152600401602060405180830381600087803b158015620008e257600080fd5b505af1158015620008f7573d6000803e3d6000fd5b505050506040513d60208110156200090e57600080fd5b810190808051906020019092919050505073ffffffffffffffffffffffffffffffffffffffff16600160009054906101000a900473ffffffffffffffffffffffffffffffffffffffff1673ffffffffffffffffffffffffffffffffffffffff1614151562000a7a576000809054906101000a900473ffffffffffffffffffffffffffffffffffffffff1673ffffffffffffffffffffffffffffffffffffffff166338cc48316040518163ffffffff167c0100000000000000000000000000000000000000000000000000000000028152600401602060405180830381600087803b158015620009fc57600080fd5b505af115801562000a11573d6000803e3d6000fd5b505050506040513d602081101562000a2857600080fd5b8101908080519060200190929190505050600160006101000a81548173ffffffffffffffffffffffffffffffffffffffff021916908373ffffffffffffffffffffffffffffffffffffffff1602179055505b600160009054906101000a900473ffffffffffffffffffffffffffffffffffffffff1673ffffffffffffffffffffffffffffffffffffffff1663524f3889836040518263ffffffff167c01000000000000000000000000000000000000000000000000000000000281526004018080602001828103825283818151815260200191508051906020019080838360005b8381101562000b2657808201518184015260208101905062000b09565b50505050905090810190601f16801562000b545780820380516001836020036101000a031916815260200191505b5092505050602060405180830381600087803b15801562000b7457600080fd5b505af115801562000b89573d6000803e3d6000fd5b505050506040513d602081101562000ba057600080fd5b81019080805190602001909291905050509050919050565b60008060008060009054906101000a900473ffffffffffffffffffffffffffffffffffffffff1673ffffffffffffffffffffffffffffffffffffffff16148062000c3c5750600062000c3a6000809054906101000a900473ffffffffffffffffffffffffffffffffffffffff166200078a640100000000026401000000009004565b145b1562000c5f5762000c5d600062000795640100000000026401000000009004565b505b6000809054906101000a900473ffffffffffffffffffffffffffffffffffffffff1673ffffffffffffffffffffffffffffffffffffffff166338cc48316040518163ffffffff167c0100000000000000000000000000000000000000000000000000000000028152600401602060405180830381600087803b15801562000ce557600080fd5b505af115801562000cfa573d6000803e3d6000fd5b505050506040513d602081101562000d1157600080fd5b810190808051906020019092919050505073ffffffffffffffffffffffffffffffffffffffff16600160009054906101000a900473ffffffffffffffffffffffffffffffffffffffff1673ffffffffffffffffffffffffffffffffffffffff1614151562000e7d576000809054906101000a900473ffffffffffffffffffffffffffffffffffffffff1673ffffffffffffffffffffffffffffffffffffffff166338cc48316040518163ffffffff167c0100000000000000000000000000000000000000000000000000000000028152600401602060405180830381600087803b15801562000dff57600080fd5b505af115801562000e14573d6000803e3d6000fd5b505050506040513d602081101562000e2b57600080fd5b8101908080519060200190929190505050600160006101000a81548173ffffffffffffffffffffffffffffffffffffffff021916908373ffffffffffffffffffffffffffffffffffffffff1602179055505b600160009054906101000a900473ffffffffffffffffffffffffffffffffffffffff1673ffffffffffffffffffffffffffffffffffffffff1663524f3889856040518263ffffffff167c01000000000000000000000000000000000000000000000000000000000281526004018080602001828103825283818151815260200191508051906020019080838360005b8381101562000f2957808201518184015260208101905062000f0c565b50505050905090810190601f16801562000f575780820380516001836020036101000a031916815260200191505b5092505050602060405180830381600087803b15801562000f7757600080fd5b505af115801562000f8c573d6000803e3d6000fd5b505050506040513d602081101562000fa357600080fd5b8101908080519060200190929190505050905062030d403a02670de0b6b3a76400000181111562000fdb57600060010291506200118e565b600160009054906101000a900473ffffffffffffffffffffffffffffffffffffffff1673ffffffffffffffffffffffffffffffffffffffff1663adf59f99828787876040518563ffffffff167c0100000000000000000000000000000000000000000000000000000000028152600401808481526020018060200180602001838103835285818151815260200191508051906020019080838360005b838110156200109457808201518184015260208101905062001077565b50505050905090810190601f168015620010c25780820380516001836020036101000a031916815260200191505b50838103825284818151815260200191508051906020019080838360005b83811015620010fd578082015181840152602081019050620010e0565b50505050905090810190601f1680156200112b5780820380516001836020036101000a031916815260200191505b50955050505050506020604051808303818588803b1580156200114d57600080fd5b505af115801562001162573d6000803e3d6000fd5b50505050506040513d60208110156200117a57600080fd5b810190808051906020019092919050505091505b509392505050565b600080620011c7731d3b2638a7cc9f2cb3d298a3da7a90b67e5506ed6200078a640100000000026401000000009004565b11156200127b57731d3b2638a7cc9f2cb3d298a3da7a90b67e5506ed6000806101000a81548173ffffffffffffffffffffffffffffffffffffffff021916908373ffffffffffffffffffffffffffffffffffffffff160217905550620012716040805190810160405280600b81526020017f6574685f6d61696e6e6574000000000000000000000000000000000000000000815250620016ee640100000000026401000000009004565b60019050620016eb565b6000620012ab73c03a2615d5efaf5f49f60b7bb6583eaec212fdf16200078a640100000000026401000000009004565b11156200135f5773c03a2615d5efaf5f49f60b7bb6583eaec212fdf16000806101000a81548173ffffffffffffffffffffffffffffffffffffffff021916908373ffffffffffffffffffffffffffffffffffffffff160217905550620013556040805190810160405280600c81526020017f6574685f726f707374656e330000000000000000000000000000000000000000815250620016ee640100000000026401000000009004565b60019050620016eb565b60006200138f73b7a07bcf2ba2f2703b24c0691b5278999c59ac7e6200078a640100000000026401000000009004565b1115620014435773b7a07bcf2ba2f2703b24c0691b5278999c59ac7e6000806101000a81548173ffffffffffffffffffffffffffffffffffffffff021916908373ffffffffffffffffffffffffffffffffffffffff160217905550620014396040805190810160405280600981526020017f6574685f6b6f76616e0000000000000000000000000000000000000000000000815250620016ee640100000000026401000000009004565b60019050620016eb565b60006200147373146500cfd35b22e4a392fe0adc06de1a1368ed486200078a640100000000026401000000009004565b1115620015275773146500cfd35b22e4a392fe0adc06de1a1368ed486000806101000a81548173ffffffffffffffffffffffffffffffffffffffff021916908373ffffffffffffffffffffffffffffffffffffffff1602179055506200151d6040805190810160405280600b81526020017f6574685f72696e6b656279000000000000000000000000000000000000000000815250620016ee640100000000026401000000009004565b60019050620016eb565b600062001557736f485c8bf6fc43ea212e93bbf8ce046c7f1cb4756200078a640100000000026401000000009004565b1115620015bc57736f485c8bf6fc43ea212e93bbf8ce046c7f1cb4756000806101000a81548173ffffffffffffffffffffffffffffffffffffffff021916908373ffffffffffffffffffffffffffffffffffffffff16021790555060019050620016eb565b6000620015ec7320e12a1f859b3feae5fb2a0a32c18f5a65555bbf6200078a640100000000026401000000009004565b111562001651577320e12a1f859b3feae5fb2a0a32c18f5a65555bbf6000806101000a81548173ffffffffffffffffffffffffffffffffffffffff021916908373ffffffffffffffffffffffffffffffffffffffff16021790555060019050620016eb565b6000620016817351efaf4c8b3c9afbd5ab9f4bbc82784ab6ef8faa6200078a640100000000026401000000009004565b1115620016e6577351efaf4c8b3c9afbd5ab9f4bbc82784ab6ef8faa6000806101000a81548173ffffffffffffffffffffffffffffffffffffffff021916908373ffffffffffffffffffffffffffffffffffffffff16021790555060019050620016eb565b600090505b90565b8060029080519060200190620017069291906200170a565b5050565b828054600181600116156101000203166002900490600052602060002090601f016020900481019282601f106200174d57805160ff19168380011785556200177e565b828001600101855582156200177e579182015b828111156200177d57825182559160200191906001019062001760565b5b5090506200178d919062001791565b5090565b620017b691905b80821115620017b257600081600090555060010162001798565b5090565b90565b611d2c80620017c96000396000f3006080604052600436106100a4576000357c0100000000000000000000000000000000000000000000000000000000900463ffffffff16806327dc297e146100b057806332d6eeb51461012757806338bbfa50146101545780634a5a3d761461021157806367c9b0171461023e5780636a42b8f81461026957806373db08441461029457806382ab890a146102bf5780638da5cb5b146102df57806394ac6ff014610336575b6100ae6000610361565b005b3480156100bc57600080fd5b506101256004803603810190808035600019169060200190929190803590602001908201803590602001908080601f01602080910402602001604051908101604052809392919081815260200183838082843782019150505050505091929192905050506105d4565b005b34801561013357600080fd5b5061015260048036038101908080359060200190929190505050610617565b005b34801561016057600080fd5b5061020f6004803603810190808035600019169060200190929190803590602001908201803590602001908080601f0160208091040260200160405190810160405280939291908181526020018383808284378201915050505050509192919290803590602001908201803590602001908080601f016020809104026020016040519081016040528093929190818152602001838380828437820191505050505050919291929050505061067d565b005b34801561021d57600080fd5b5061023c60048036038101908080359060200190929190505050610716565b005b34801561024a57600080fd5b5061025361077c565b6040518082815260200191505060405180910390f35b34801561027557600080fd5b5061027e610786565b6040518082815260200191505060405180910390f35b3480156102a057600080fd5b506102a961078c565b6040518082815260200191505060405180910390f35b6102dd60048036038101908080359060200190929190505050610361565b005b3480156102eb57600080fd5b506102f4610792565b604051808273ffffffffffffffffffffffffffffffffffffffff1673ffffffffffffffffffffffffffffffffffffffff16815260200191505060405180910390f35b34801561034257600080fd5b5061034b6107b8565b6040518082815260200191505060405180910390f35b3073ffffffffffffffffffffffffffffffffffffffff16316103b76040805190810160405280600381526020017f55524c00000000000000000000000000000000000000000000000000000000008152506107be565b111561047f576007546008819055507ffee95ecae0c8f7f0743ec0ad254c78ab75e5ecca9f1ddcd9f11f9a98124b96bc60405180806020018281038252604c8152602001807f4f7261636c697a6520717565727920776173204e4f542073656e742c20706c6581526020017f6173652061646420736f6d652045544820746f20636f76657220666f7220746881526020017f652071756572792066656521000000000000000000000000000000000000000081525060600191505060405180910390a16105d1565b7ffee95ecae0c8f7f0743ec0ad254c78ab75e5ecca9f1ddcd9f11f9a98124b96bc6040518080602001828103825260378152602001807f4f7261636c697a65207175657279207761732073656e742c207374616e64696e81526020017f6720627920666f722074686520616e73776572202e2e2e00000000000000000081525060400191505060405180910390a16105cf816040805190810160405280600381526020017f55524c0000000000000000000000000000000000000000000000000000000000815250608060405190810160405280604381526020017f6a736f6e2868747470733a2f2f6170692e636f696e6d61726b65746361702e6381526020017f6f6d2f76312f7469636b65722f657468657265756d2f292e302e70726963655f81526020017f7573640000000000000000000000000000000000000000000000000000000000815250610b8e565b505b50565b610613828260006040519080825280601f01601f19166020018201604052801561060d5781602001602082028038833980820191505090505b5061067d565b5050565b600560009054906101000a900473ffffffffffffffffffffffffffffffffffffffff1673ffffffffffffffffffffffffffffffffffffffff163373ffffffffffffffffffffffffffffffffffffffff1614151561067357600080fd5b8060068190555050565b610685611130565b73ffffffffffffffffffffffffffffffffffffffff163373ffffffffffffffffffffffffffffffffffffffff161415156106be57600080fd5b6106c78261148e565b6008819055507f347ecf8e277d32d09f7d545d147316524769a54a721bbf706d24fcdccc10f81a6008546040518082815260200191505060405180910390a1610711600654610361565b505050565b600560009054906101000a900473ffffffffffffffffffffffffffffffffffffffff1673ffffffffffffffffffffffffffffffffffffffff163373ffffffffffffffffffffffffffffffffffffffff1614151561077257600080fd5b8060078190555050565b6000600854905090565b60065481565b60085481565b600560009054906101000a900473ffffffffffffffffffffffffffffffffffffffff1681565b60075481565b6000806000809054906101000a900473ffffffffffffffffffffffffffffffffffffffff1673ffffffffffffffffffffffffffffffffffffffff16148061082e5750600061082c6000809054906101000a900473ffffffffffffffffffffffffffffffffffffffff166114a2565b145b1561083f5761083d60006114ad565b505b6000809054906101000a900473ffffffffffffffffffffffffffffffffffffffff1673ffffffffffffffffffffffffffffffffffffffff166338cc48316040518163ffffffff167c0100000000000000000000000000000000000000000000000000000000028152600401602060405180830381600087803b1580156108c457600080fd5b505af11580156108d8573d6000803e3d6000fd5b505050506040513d60208110156108ee57600080fd5b810190808051906020019092919050505073ffffffffffffffffffffffffffffffffffffffff16600160009054906101000a900473ffffffffffffffffffffffffffffffffffffffff1673ffffffffffffffffffffffffffffffffffffffff16141515610a56576000809054906101000a900473ffffffffffffffffffffffffffffffffffffffff1673ffffffffffffffffffffffffffffffffffffffff166338cc48316040518163ffffffff167c0100000000000000000000000000000000000000000000000000000000028152600401602060405180830381600087803b1580156109da57600080fd5b505af11580156109ee573d6000803e3d6000fd5b505050506040513d6020811015610a0457600080fd5b8101908080519060200190929190505050600160006101000a81548173ffffffffffffffffffffffffffffffffffffffff021916908373ffffffffffffffffffffffffffffffffffffffff1602179055505b600160009054906101000a900473ffffffffffffffffffffffffffffffffffffffff1673ffffffffffffffffffffffffffffffffffffffff1663524f3889836040518263ffffffff167c01000000000000000000000000000000000000000000000000000000000281526004018080602001828103825283818151815260200191508051906020019080838360005b83811015610b00578082015181840152602081019050610ae5565b50505050905090810190601f168015610b2d5780820380516001836020036101000a031916815260200191505b5092505050602060405180830381600087803b158015610b4c57600080fd5b505af1158015610b60573d6000803e3d6000fd5b505050506040513d6020811015610b7657600080fd5b81019080805190602001909291905050509050919050565b60008060008060009054906101000a900473ffffffffffffffffffffffffffffffffffffffff1673ffffffffffffffffffffffffffffffffffffffff161480610c0057506000610bfe6000809054906101000a900473ffffffffffffffffffffffffffffffffffffffff166114a2565b145b15610c1157610c0f60006114ad565b505b6000809054906101000a900473ffffffffffffffffffffffffffffffffffffffff1673ffffffffffffffffffffffffffffffffffffffff166338cc48316040518163ffffffff167c0100000000000000000000000000000000000000000000000000000000028152600401602060405180830381600087803b158015610c9657600080fd5b505af1158015610caa573d6000803e3d6000fd5b505050506040513d6020811015610cc057600080fd5b810190808051906020019092919050505073ffffffffffffffffffffffffffffffffffffffff16600160009054906101000a900473ffffffffffffffffffffffffffffffffffffffff1673ffffffffffffffffffffffffffffffffffffffff16141515610e28576000809054906101000a900473ffffffffffffffffffffffffffffffffffffffff1673ffffffffffffffffffffffffffffffffffffffff166338cc48316040518163ffffffff167c0100000000000000000000000000000000000000000000000000000000028152600401602060405180830381600087803b158015610dac57600080fd5b505af1158015610dc0573d6000803e3d6000fd5b505050506040513d6020811015610dd657600080fd5b8101908080519060200190929190505050600160006101000a81548173ffffffffffffffffffffffffffffffffffffffff021916908373ffffffffffffffffffffffffffffffffffffffff1602179055505b600160009054906101000a900473ffffffffffffffffffffffffffffffffffffffff1673ffffffffffffffffffffffffffffffffffffffff1663524f3889856040518263ffffffff167c01000000000000000000000000000000000000000000000000000000000281526004018080602001828103825283818151815260200191508051906020019080838360005b83811015610ed2578082015181840152602081019050610eb7565b50505050905090810190601f168015610eff5780820380516001836020036101000a031916815260200191505b5092505050602060405180830381600087803b158015610f1e57600080fd5b505af1158015610f32573d6000803e3d6000fd5b505050506040513d6020811015610f4857600080fd5b8101908080519060200190929190505050905062030d403a02670de0b6b3a764000001811115610f7e5760006001029150611128565b600160009054906101000a900473ffffffffffffffffffffffffffffffffffffffff1673ffffffffffffffffffffffffffffffffffffffff1663adf59f99828787876040518563ffffffff167c0100000000000000000000000000000000000000000000000000000000028152600401808481526020018060200180602001838103835285818151815260200191508051906020019080838360005b8381101561103557808201518184015260208101905061101a565b50505050905090810190601f1680156110625780820380516001836020036101000a031916815260200191505b50838103825284818151815260200191508051906020019080838360005b8381101561109b578082015181840152602081019050611080565b50505050905090810190601f1680156110c85780820380516001836020036101000a031916815260200191505b50955050505050506020604051808303818588803b1580156110e957600080fd5b505af11580156110fd573d6000803e3d6000fd5b50505050506040513d602081101561111457600080fd5b810190808051906020019092919050505091505b509392505050565b6000806000809054906101000a900473ffffffffffffffffffffffffffffffffffffffff1673ffffffffffffffffffffffffffffffffffffffff1614806111a05750600061119e6000809054906101000a900473ffffffffffffffffffffffffffffffffffffffff166114a2565b145b156111b1576111af60006114ad565b505b6000809054906101000a900473ffffffffffffffffffffffffffffffffffffffff1673ffffffffffffffffffffffffffffffffffffffff166338cc48316040518163ffffffff167c0100000000000000000000000000000000000000000000000000000000028152600401602060405180830381600087803b15801561123657600080fd5b505af115801561124a573d6000803e3d6000fd5b505050506040513d602081101561126057600080fd5b810190808051906020019092919050505073ffffffffffffffffffffffffffffffffffffffff16600160009054906101000a900473ffffffffffffffffffffffffffffffffffffffff1673ffffffffffffffffffffffffffffffffffffffff161415156113c8576000809054906101000a900473ffffffffffffffffffffffffffffffffffffffff1673ffffffffffffffffffffffffffffffffffffffff166338cc48316040518163ffffffff167c0100000000000000000000000000000000000000000000000000000000028152600401602060405180830381600087803b15801561134c57600080fd5b505af1158015611360573d6000803e3d6000fd5b505050506040513d602081101561137657600080fd5b8101908080519060200190929190505050600160006101000a81548173ffffffffffffffffffffffffffffffffffffffff021916908373ffffffffffffffffffffffffffffffffffffffff1602179055505b600160009054906101000a900473ffffffffffffffffffffffffffffffffffffffff1673ffffffffffffffffffffffffffffffffffffffff1663c281d19e6040518163ffffffff167c0100000000000000000000000000000000000000000000000000000000028152600401602060405180830381600087803b15801561144e57600080fd5b505af1158015611462573d6000803e3d6000fd5b505050506040513d602081101561147857600080fd5b8101908080519060200190929190505050905090565b600061149b8260006114be565b9050919050565b6000813b9050919050565b60006114b76117b2565b9050919050565b6000606060008060008693506000925060009150600090505b83518110156117935760307f010000000000000000000000000000000000000000000000000000000000000002848281518110151561151257fe5b9060200101517f010000000000000000000000000000000000000000000000000000000000000090047f0100000000000000000000000000000000000000000000000000000000000000027effffffffffffffffffffffffffffffffffffffffffffffffffffffffffffff19161015801561162a575060397f01000000000000000000000000000000000000000000000000000000000000000284828151811015156115ba57fe5b9060200101517f010000000000000000000000000000000000000000000000000000000000000090047f0100000000000000000000000000000000000000000000000000000000000000027effffffffffffffffffffffffffffffffffffffffffffffffffffffffffffff191611155b156116db57811561164d57600086141561164357611793565b8580600190039650505b600a830292506030848281518110151561166357fe5b9060200101517f010000000000000000000000000000000000000000000000000000000000000090047f0100000000000000000000000000000000000000000000000000000000000000027f010000000000000000000000000000000000000000000000000000000000000090040383019250611786565b602e7f010000000000000000000000000000000000000000000000000000000000000002848281518110151561170d57fe5b9060200101517f010000000000000000000000000000000000000000000000000000000000000090047f0100000000000000000000000000000000000000000000000000000000000000027effffffffffffffffffffffffffffffffffffffffffffffffffffffffffffff1916141561178557600191505b5b80806001019150506114d7565b60008611156117a55785600a0a830292505b8294505050505092915050565b6000806117d2731d3b2638a7cc9f2cb3d298a3da7a90b67e5506ed6114a2565b111561187357731d3b2638a7cc9f2cb3d298a3da7a90b67e5506ed6000806101000a81548173ffffffffffffffffffffffffffffffffffffffff021916908373ffffffffffffffffffffffffffffffffffffffff16021790555061186a6040805190810160405280600b81526020017f6574685f6d61696e6e6574000000000000000000000000000000000000000000815250611c41565b60019050611c3e565b600061189273c03a2615d5efaf5f49f60b7bb6583eaec212fdf16114a2565b11156119335773c03a2615d5efaf5f49f60b7bb6583eaec212fdf16000806101000a81548173ffffffffffffffffffffffffffffffffffffffff021916908373ffffffffffffffffffffffffffffffffffffffff16021790555061192a6040805190810160405280600c81526020017f6574685f726f707374656e330000000000000000000000000000000000000000815250611c41565b60019050611c3e565b600061195273b7a07bcf2ba2f2703b24c0691b5278999c59ac7e6114a2565b11156119f35773b7a07bcf2ba2f2703b24c0691b5278999c59ac7e6000806101000a81548173ffffffffffffffffffffffffffffffffffffffff021916908373ffffffffffffffffffffffffffffffffffffffff1602179055506119ea6040805190810160405280600981526020017f6574685f6b6f76616e0000000000000000000000000000000000000000000000815250611c41565b60019050611c3e565b6000611a1273146500cfd35b22e4a392fe0adc06de1a1368ed486114a2565b1115611ab35773146500cfd35b22e4a392fe0adc06de1a1368ed486000806101000a81548173ffffffffffffffffffffffffffffffffffffffff021916908373ffffffffffffffffffffffffffffffffffffffff160217905550611aaa6040805190810160405280600b81526020017f6574685f72696e6b656279000000000000000000000000000000000000000000815250611c41565b60019050611c3e565b6000611ad2736f485c8bf6fc43ea212e93bbf8ce046c7f1cb4756114a2565b1115611b3557736f485c8bf6fc43ea212e93bbf8ce046c7f1cb4756000806101000a81548173ffffffffffffffffffffffffffffffffffffffff021916908373ffffffffffffffffffffffffffffffffffffffff16021790555060019050611c3e565b6000611b547320e12a1f859b3feae5fb2a0a32c18f5a65555bbf6114a2565b1115611bb7577320e12a1f859b3feae5fb2a0a32c18f5a65555bbf6000806101000a81548173ffffffffffffffffffffffffffffffffffffffff021916908373ffffffffffffffffffffffffffffffffffffffff16021790555060019050611c3e565b6000611bd67351efaf4c8b3c9afbd5ab9f4bbc82784ab6ef8faa6114a2565b1115611c39577351efaf4c8b3c9afbd5ab9f4bbc82784ab6ef8faa6000806101000a81548173ffffffffffffffffffffffffffffffffffffffff021916908373ffffffffffffffffffffffffffffffffffffffff16021790555060019050611c3e565b600090505b90565b8060029080519060200190611c57929190611c5b565b5050565b828054600181600116156101000203166002900490600052602060002090601f016020900481019282601f10611c9c57805160ff1916838001178555611cca565b82800160010185558215611cca579182015b82811115611cc9578251825591602001919060010190611cae565b5b509050611cd79190611cdb565b5090565b611cfd91905b80821115611cf9576000816000905550600101611ce1565b5090565b905600a165627a7a72305820d1e168e226664dfe0ac7fecea52d9555ec7176093495cb68a9772eb71a7c93930029",
  "source": "pragma solidity ^0.4.18;\n\nimport \"./api/contracts/usingOraclize.sol\";\n\n/**\n * @title EthPriceOraclize\n * @dev Using oraclize for getting ETH price from coinmarketcap\n */\ncontract EthPriceOraclize is usingOraclize {\n    address public owner;\n    uint256 public delay = 43200; // 12 hours for pre-sale\n    uint256 public ethDefaultPrice;\n    uint256 public ETHUSD;\n\n    event OraclizeCreated(address _oraclize);\n    event LogInfo(string description);\n    event LogPriceUpdate(uint256 price);\n\n    function() external payable {\n        update(0);\n    }\n\n    modifier onlyOwner() {\n        require(msg.sender == owner);\n        _;\n    }\n\n    function EthPriceOraclize() public {\n        owner = msg.sender;\n        oraclize_setProof(proofType_TLSNotary | proofStorage_IPFS);\n\n        emit OraclizeCreated(this);\n        update(0);\n    }\n\n    function __callback(bytes32 id, string result, bytes proof) public {\n        require(msg.sender == oraclize_cbAddress());\n\n        ETHUSD = parseInt(result);\n        LogPriceUpdate(ETHUSD);\n\n        update(delay);\n    }\n\n    function update(uint256 _delay) payable public {\n        if (oraclize_getPrice(\"URL\") > address(this).balance) {\n            ETHUSD = ethDefaultPrice;\n            LogInfo(\"Oraclize query was NOT sent, please add some ETH to cover for the query fee!\");\n        } else {\n            LogInfo(\"Oraclize query was sent, standing by for the answer ...\");\n            oraclize_query(_delay, \"URL\", \"json(https://api.coinmarketcap.com/v1/ticker/ethereum/).0.price_usd\");\n        }\n    }\n\n    function setETHPriceManually(uint256 _price) public onlyOwner {\n        ethDefaultPrice = _price;\n    }\n\n    function changeQueryDelay(uint256 _newDelay) public onlyOwner {\n        delay = _newDelay;\n    }\n\n    function getEthPrice() public view returns (uint256) {\n        return ETHUSD;\n    }\n\n}",
  "sourcePath": "/Users/arikdonovan/Desktop/Smart-Contracts/contracts/oraclize/EthPriceOraclize.sol",
  "compiler": {
    "name": "solc",
    "version": "0.4.24+commit.e67f0147.Emscripten.clang"
  },
  "schemaVersion": "2.0.1",
  "updatedAt": "2018-09-06T20:40:49.102Z"
}