{
  "contractName": "TokenVestingFactory",
  "abi": [
    {
      "constant": false,
      "inputs": [],
      "name": "renounceOwnership",
      "outputs": [],
      "payable": false,
      "stateMutability": "nonpayable",
      "type": "function"
    },
    {
      "constant": true,
      "inputs": [],
      "name": "owner",
      "outputs": [
        {
          "name": "",
          "type": "address"
        }
      ],
      "payable": false,
      "stateMutability": "view",
      "type": "function"
    },
    {
      "constant": false,
      "inputs": [
        {
          "name": "_newOwner",
          "type": "address"
        }
      ],
      "name": "transferOwnership",
      "outputs": [],
      "payable": false,
      "stateMutability": "nonpayable",
      "type": "function"
    },
    {
      "anonymous": false,
      "inputs": [
        {
          "indexed": false,
          "name": "vesting",
          "type": "address"
        }
      ],
      "name": "Created",
      "type": "event"
    },
    {
      "anonymous": false,
      "inputs": [
        {
          "indexed": true,
          "name": "previousOwner",
          "type": "address"
        }
      ],
      "name": "OwnershipRenounced",
      "type": "event"
    },
    {
      "anonymous": false,
      "inputs": [
        {
          "indexed": true,
          "name": "previousOwner",
          "type": "address"
        },
        {
          "indexed": true,
          "name": "newOwner",
          "type": "address"
        }
      ],
      "name": "OwnershipTransferred",
      "type": "event"
    },
    {
      "constant": false,
      "inputs": [
        {
          "name": "_beneficiary",
          "type": "address"
        },
        {
          "name": "_start",
          "type": "uint256"
        },
        {
          "name": "_cliff",
          "type": "uint256"
        },
        {
          "name": "_duration",
          "type": "uint256"
        }
      ],
      "name": "create",
      "outputs": [
        {
          "name": "",
          "type": "address"
        }
      ],
      "payable": false,
      "stateMutability": "nonpayable",
      "type": "function"
    }
  ],
  "bytecode": "0x6080604052336000806101000a81548173ffffffffffffffffffffffffffffffffffffffff021916908373ffffffffffffffffffffffffffffffffffffffff1602179055506117a1806100536000396000f300608060405260043610610062576000357c0100000000000000000000000000000000000000000000000000000000900463ffffffff168063715018a6146100675780638c71ec161461007e5780638da5cb5b1461011f578063f2fde38b14610176575b600080fd5b34801561007357600080fd5b5061007c6101b9565b005b34801561008a57600080fd5b506100dd600480360381019080803573ffffffffffffffffffffffffffffffffffffffff1690602001909291908035906020019092919080359060200190929190803590602001909291905050506102bb565b604051808273ffffffffffffffffffffffffffffffffffffffff1673ffffffffffffffffffffffffffffffffffffffff16815260200191505060405180910390f35b34801561012b57600080fd5b506101346104be565b604051808273ffffffffffffffffffffffffffffffffffffffff1673ffffffffffffffffffffffffffffffffffffffff16815260200191505060405180910390f35b34801561018257600080fd5b506101b7600480360381019080803573ffffffffffffffffffffffffffffffffffffffff1690602001909291905050506104e7565b005b6000809054906101000a900473ffffffffffffffffffffffffffffffffffffffff1673ffffffffffffffffffffffffffffffffffffffff163373ffffffffffffffffffffffffffffffffffffffff1614151561021457600080fd5b6000809054906101000a900473ffffffffffffffffffffffffffffffffffffffff1673ffffffffffffffffffffffffffffffffffffffff167ff8df31144d9c2f0f6b59d69b8b98abd5459d07f2742c4df920b25aae33c6482060405160405180910390a260008060006101000a81548173ffffffffffffffffffffffffffffffffffffffff021916908373ffffffffffffffffffffffffffffffffffffffff160217905550565b6000806000809054906101000a900473ffffffffffffffffffffffffffffffffffffffff1673ffffffffffffffffffffffffffffffffffffffff163373ffffffffffffffffffffffffffffffffffffffff1614151561031957600080fd5b858585856001610327610648565b808673ffffffffffffffffffffffffffffffffffffffff1673ffffffffffffffffffffffffffffffffffffffff1681526020018581526020018481526020018381526020018215151515815260200195505050505050604051809103906000f080158015610399573d6000803e3d6000fd5b5090508073ffffffffffffffffffffffffffffffffffffffff1663f2fde38b336040518263ffffffff167c0100000000000000000000000000000000000000000000000000000000028152600401808273ffffffffffffffffffffffffffffffffffffffff1673ffffffffffffffffffffffffffffffffffffffff168152602001915050600060405180830381600087803b15801561043757600080fd5b505af115801561044b573d6000803e3d6000fd5b505050507f1449abf21e49fd025f33495e77f7b1461caefdd3d4bb646424a3f445c4576a5b81604051808273ffffffffffffffffffffffffffffffffffffffff1673ffffffffffffffffffffffffffffffffffffffff16815260200191505060405180910390a180915050949350505050565b60008060009054906101000a900473ffffffffffffffffffffffffffffffffffffffff16905090565b6000809054906101000a900473ffffffffffffffffffffffffffffffffffffffff1673ffffffffffffffffffffffffffffffffffffffff163373ffffffffffffffffffffffffffffffffffffffff1614151561054257600080fd5b61054b8161054e565b50565b600073ffffffffffffffffffffffffffffffffffffffff168173ffffffffffffffffffffffffffffffffffffffff161415151561058a57600080fd5b8073ffffffffffffffffffffffffffffffffffffffff166000809054906101000a900473ffffffffffffffffffffffffffffffffffffffff1673ffffffffffffffffffffffffffffffffffffffff167f8be0079c531659141344cd1fd0a4f28419497f9722a3daafe3b4186f6b6457e060405160405180910390a3806000806101000a81548173ffffffffffffffffffffffffffffffffffffffff021916908373ffffffffffffffffffffffffffffffffffffffff16021790555050565b60405161111d80610659833901905600608060405234801561001057600080fd5b5060405160a08061111d8339810180604052810190808051906020019092919080519060200190929190805190602001909291908051906020019092919080519060200190929190505050336000806101000a81548173ffffffffffffffffffffffffffffffffffffffff021916908373ffffffffffffffffffffffffffffffffffffffff160217905550600073ffffffffffffffffffffffffffffffffffffffff168573ffffffffffffffffffffffffffffffffffffffff16141515156100d757600080fd5b8183111515156100e657600080fd5b84600160006101000a81548173ffffffffffffffffffffffffffffffffffffffff021916908373ffffffffffffffffffffffffffffffffffffffff16021790555080600560006101000a81548160ff02191690831515021790555081600481905550610168838561017f64010000000002610cd1179091906401000000009004565b6002819055508360038190555050505050506101a0565b600080828401905083811015151561019657600080fd5b8091505092915050565b610f6e806101af6000396000f3006080604052600436106100d0576000357c0100000000000000000000000000000000000000000000000000000000900463ffffffff1680630fb5a6b4146100d557806313d033c0146101005780631726cbc81461012b5780631916558714610182578063384711cc146101c557806338af3eed1461021c578063715018a61461027357806374a8f1031461028a578063872a7810146102cd5780638da5cb5b146102fc5780639852595c14610353578063be9a6555146103aa578063f2fde38b146103d5578063fa01dc0614610418575b600080fd5b3480156100e157600080fd5b506100ea610473565b6040518082815260200191505060405180910390f35b34801561010c57600080fd5b50610115610479565b6040518082815260200191505060405180910390f35b34801561013757600080fd5b5061016c600480360381019080803573ffffffffffffffffffffffffffffffffffffffff16906020019092919050505061047f565b6040518082815260200191505060405180910390f35b34801561018e57600080fd5b506101c3600480360381019080803573ffffffffffffffffffffffffffffffffffffffff1690602001909291905050506104e2565b005b3480156101d157600080fd5b50610206600480360381019080803573ffffffffffffffffffffffffffffffffffffffff16906020019092919050505061061b565b6040518082815260200191505060405180910390f35b34801561022857600080fd5b5061023161081f565b604051808273ffffffffffffffffffffffffffffffffffffffff1673ffffffffffffffffffffffffffffffffffffffff16815260200191505060405180910390f35b34801561027f57600080fd5b50610288610845565b005b34801561029657600080fd5b506102cb600480360381019080803573ffffffffffffffffffffffffffffffffffffffff169060200190929190505050610947565b005b3480156102d957600080fd5b506102e2610bcf565b604051808215151515815260200191505060405180910390f35b34801561030857600080fd5b50610311610be2565b604051808273ffffffffffffffffffffffffffffffffffffffff1673ffffffffffffffffffffffffffffffffffffffff16815260200191505060405180910390f35b34801561035f57600080fd5b50610394600480360381019080803573ffffffffffffffffffffffffffffffffffffffff169060200190929190505050610c0b565b6040518082815260200191505060405180910390f35b3480156103b657600080fd5b506103bf610c23565b6040518082815260200191505060405180910390f35b3480156103e157600080fd5b50610416600480360381019080803573ffffffffffffffffffffffffffffffffffffffff169060200190929190505050610c29565b005b34801561042457600080fd5b50610459600480360381019080803573ffffffffffffffffffffffffffffffffffffffff169060200190929190505050610c90565b604051808215151515815260200191505060405180910390f35b60045481565b60025481565b60006104db600660008473ffffffffffffffffffffffffffffffffffffffff1673ffffffffffffffffffffffffffffffffffffffff168152602001908152602001600020546104cd8461061b565b610cb090919063ffffffff16565b9050919050565b60006104ed8261047f565b90506000811115156104fe57600080fd5b61055081600660008573ffffffffffffffffffffffffffffffffffffffff1673ffffffffffffffffffffffffffffffffffffffff16815260200190815260200160002054610cd190919063ffffffff16565b600660008473ffffffffffffffffffffffffffffffffffffffff1673ffffffffffffffffffffffffffffffffffffffff168152602001908152602001600020819055506105e0600160009054906101000a900473ffffffffffffffffffffffffffffffffffffffff16828473ffffffffffffffffffffffffffffffffffffffff16610cf29092919063ffffffff16565b7ffb81f9b30d73d830c3544b34d827c08142579ee75710b490bab0b3995468c565816040518082815260200191505060405180910390a15050565b60008060008373ffffffffffffffffffffffffffffffffffffffff166370a08231306040518263ffffffff167c0100000000000000000000000000000000000000000000000000000000028152600401808273ffffffffffffffffffffffffffffffffffffffff1673ffffffffffffffffffffffffffffffffffffffff168152602001915050602060405180830381600087803b1580156106bb57600080fd5b505af11580156106cf573d6000803e3d6000fd5b505050506040513d60208110156106e557600080fd5b8101908080519060200190929190505050915061074a600660008673ffffffffffffffffffffffffffffffffffffffff1673ffffffffffffffffffffffffffffffffffffffff1681526020019081526020016000205483610cd190919063ffffffff16565b905060025442101561075f5760009250610818565b610776600454600354610cd190919063ffffffff16565b421015806107cd5750600760008573ffffffffffffffffffffffffffffffffffffffff1673ffffffffffffffffffffffffffffffffffffffff16815260200190815260200160002060009054906101000a900460ff165b156107da57809250610818565b6108156004546108076107f860035442610cb090919063ffffffff16565b84610de090919063ffffffff16565b610e1e90919063ffffffff16565b92505b5050919050565b600160009054906101000a900473ffffffffffffffffffffffffffffffffffffffff1681565b6000809054906101000a900473ffffffffffffffffffffffffffffffffffffffff1673ffffffffffffffffffffffffffffffffffffffff163373ffffffffffffffffffffffffffffffffffffffff161415156108a057600080fd5b6000809054906101000a900473ffffffffffffffffffffffffffffffffffffffff1673ffffffffffffffffffffffffffffffffffffffff167ff8df31144d9c2f0f6b59d69b8b98abd5459d07f2742c4df920b25aae33c6482060405160405180910390a260008060006101000a81548173ffffffffffffffffffffffffffffffffffffffff021916908373ffffffffffffffffffffffffffffffffffffffff160217905550565b60008060008060009054906101000a900473ffffffffffffffffffffffffffffffffffffffff1673ffffffffffffffffffffffffffffffffffffffff163373ffffffffffffffffffffffffffffffffffffffff161415156109a757600080fd5b600560009054906101000a900460ff1615156109c257600080fd5b600760008573ffffffffffffffffffffffffffffffffffffffff1673ffffffffffffffffffffffffffffffffffffffff16815260200190815260200160002060009054906101000a900460ff16151515610a1b57600080fd5b8373ffffffffffffffffffffffffffffffffffffffff166370a08231306040518263ffffffff167c0100000000000000000000000000000000000000000000000000000000028152600401808273ffffffffffffffffffffffffffffffffffffffff1673ffffffffffffffffffffffffffffffffffffffff168152602001915050602060405180830381600087803b158015610ab657600080fd5b505af1158015610aca573d6000803e3d6000fd5b505050506040513d6020811015610ae057600080fd5b81019080805190602001909291905050509250610afc8461047f565b9150610b118284610cb090919063ffffffff16565b90506001600760008673ffffffffffffffffffffffffffffffffffffffff1673ffffffffffffffffffffffffffffffffffffffff16815260200190815260200160002060006101000a81548160ff021916908315150217905550610b9d610b76610be2565b828673ffffffffffffffffffffffffffffffffffffffff16610cf29092919063ffffffff16565b7f44825a4b2df8acb19ce4e1afba9aa850c8b65cdb7942e2078f27d0b0960efee660405160405180910390a150505050565b600560009054906101000a900460ff1681565b60008060009054906101000a900473ffffffffffffffffffffffffffffffffffffffff16905090565b60066020528060005260406000206000915090505481565b60035481565b6000809054906101000a900473ffffffffffffffffffffffffffffffffffffffff1673ffffffffffffffffffffffffffffffffffffffff163373ffffffffffffffffffffffffffffffffffffffff16141515610c8457600080fd5b610c8d81610e48565b50565b60076020528060005260406000206000915054906101000a900460ff1681565b600080838311151515610cc257600080fd5b82840390508091505092915050565b6000808284019050838110151515610ce857600080fd5b8091505092915050565b8273ffffffffffffffffffffffffffffffffffffffff1663a9059cbb83836040518363ffffffff167c0100000000000000000000000000000000000000000000000000000000028152600401808373ffffffffffffffffffffffffffffffffffffffff1673ffffffffffffffffffffffffffffffffffffffff16815260200182815260200192505050602060405180830381600087803b158015610d9557600080fd5b505af1158015610da9573d6000803e3d6000fd5b505050506040513d6020811015610dbf57600080fd5b81019080805190602001909291905050501515610ddb57600080fd5b505050565b6000806000841415610df55760009150610e17565b8284029050828482811515610e0657fe5b04141515610e1357600080fd5b8091505b5092915050565b600080600083111515610e3057600080fd5b8284811515610e3b57fe5b0490508091505092915050565b600073ffffffffffffffffffffffffffffffffffffffff168173ffffffffffffffffffffffffffffffffffffffff1614151515610e8457600080fd5b8073ffffffffffffffffffffffffffffffffffffffff166000809054906101000a900473ffffffffffffffffffffffffffffffffffffffff1673ffffffffffffffffffffffffffffffffffffffff167f8be0079c531659141344cd1fd0a4f28419497f9722a3daafe3b4186f6b6457e060405160405180910390a3806000806101000a81548173ffffffffffffffffffffffffffffffffffffffff021916908373ffffffffffffffffffffffffffffffffffffffff160217905550505600a165627a7a723058206f43a1fbb7be92f3cdb77a769d48ef9ef9602acb2bd9196378e7d9aef4f15e5e0029a165627a7a723058204fa2667f1605599826be54e20b4ccbb8983492e535ced5ce4f9bd0f469347b100029",
  "source": "pragma solidity ^0.4.21;\n\nimport '../ownership/Ownable.sol';\nimport './TokenVesting.sol';\n\n\ncontract TokenVestingFactory is Ownable {\n    event Created(TokenVesting vesting);\n\n    function create( address _beneficiary, uint256 _start, uint256 _cliff, uint256 _duration ) onlyOwner public returns (TokenVesting) {\n        TokenVesting vesting = new TokenVesting(\n            _beneficiary,\n            _start,\n            _cliff,\n            _duration,\n            true\n        );\n\n        vesting.transferOwnership(msg.sender);\n\n        emit Created(vesting);\n        return vesting;\n    }\n}",
  "sourcePath": "/Users/arikdonovan/Desktop/Smart-Contracts/contracts/vesting/VestingFactory.sol",
  "compiler": {
    "name": "solc",
    "version": "0.4.24+commit.e67f0147.Emscripten.clang"
  },
  "schemaVersion": "2.0.1",
  "updatedAt": "2018-09-06T20:40:49.208Z"
}